{
  "_format": "hh-sol-artifact-1",
  "contractName": "NFT",
  "sourceName": "contracts/NFT.sol",
  "abi": [
    {
      "inputs": [
        {
          "internalType": "string",
          "name": "name",
          "type": "string"
        },
        {
          "internalType": "string",
          "name": "symbol",
          "type": "string"
        },
        {
          "internalType": "string",
          "name": "baseTokenURI",
          "type": "string"
        },
        {
          "internalType": "uint256",
          "name": "totalSupply",
          "type": "uint256"
        }
      ],
      "stateMutability": "nonpayable",
      "type": "constructor"
    },
    {
      "anonymous": false,
      "inputs": [
        {
          "indexed": true,
          "internalType": "address",
          "name": "owner",
          "type": "address"
        },
        {
          "indexed": true,
          "internalType": "address",
          "name": "approved",
          "type": "address"
        },
        {
          "indexed": true,
          "internalType": "uint256",
          "name": "tokenId",
          "type": "uint256"
        }
      ],
      "name": "Approval",
      "type": "event"
    },
    {
      "anonymous": false,
      "inputs": [
        {
          "indexed": true,
          "internalType": "address",
          "name": "owner",
          "type": "address"
        },
        {
          "indexed": true,
          "internalType": "address",
          "name": "operator",
          "type": "address"
        },
        {
          "indexed": false,
          "internalType": "bool",
          "name": "approved",
          "type": "bool"
        }
      ],
      "name": "ApprovalForAll",
      "type": "event"
    },
    {
      "anonymous": false,
      "inputs": [
        {
          "indexed": false,
          "internalType": "address",
          "name": "account",
          "type": "address"
        }
      ],
      "name": "Paused",
      "type": "event"
    },
    {
      "anonymous": false,
      "inputs": [
        {
          "indexed": true,
          "internalType": "bytes32",
          "name": "role",
          "type": "bytes32"
        },
        {
          "indexed": true,
          "internalType": "bytes32",
          "name": "previousAdminRole",
          "type": "bytes32"
        },
        {
          "indexed": true,
          "internalType": "bytes32",
          "name": "newAdminRole",
          "type": "bytes32"
        }
      ],
      "name": "RoleAdminChanged",
      "type": "event"
    },
    {
      "anonymous": false,
      "inputs": [
        {
          "indexed": true,
          "internalType": "bytes32",
          "name": "role",
          "type": "bytes32"
        },
        {
          "indexed": true,
          "internalType": "address",
          "name": "account",
          "type": "address"
        },
        {
          "indexed": true,
          "internalType": "address",
          "name": "sender",
          "type": "address"
        }
      ],
      "name": "RoleGranted",
      "type": "event"
    },
    {
      "anonymous": false,
      "inputs": [
        {
          "indexed": true,
          "internalType": "bytes32",
          "name": "role",
          "type": "bytes32"
        },
        {
          "indexed": true,
          "internalType": "address",
          "name": "account",
          "type": "address"
        },
        {
          "indexed": true,
          "internalType": "address",
          "name": "sender",
          "type": "address"
        }
      ],
      "name": "RoleRevoked",
      "type": "event"
    },
    {
      "anonymous": false,
      "inputs": [
        {
          "indexed": true,
          "internalType": "address",
          "name": "from",
          "type": "address"
        },
        {
          "indexed": true,
          "internalType": "address",
          "name": "to",
          "type": "address"
        },
        {
          "indexed": true,
          "internalType": "uint256",
          "name": "tokenId",
          "type": "uint256"
        }
      ],
      "name": "Transfer",
      "type": "event"
    },
    {
      "anonymous": false,
      "inputs": [
        {
          "indexed": false,
          "internalType": "address",
          "name": "account",
          "type": "address"
        }
      ],
      "name": "Unpaused",
      "type": "event"
    },
    {
      "inputs": [],
      "name": "DEFAULT_ADMIN_ROLE",
      "outputs": [
        {
          "internalType": "bytes32",
          "name": "",
          "type": "bytes32"
        }
      ],
      "stateMutability": "view",
      "type": "function"
    },
    {
      "inputs": [],
      "name": "MINTER_ROLE",
      "outputs": [
        {
          "internalType": "bytes32",
          "name": "",
          "type": "bytes32"
        }
      ],
      "stateMutability": "view",
      "type": "function"
    },
    {
      "inputs": [],
      "name": "PAUSER_ROLE",
      "outputs": [
        {
          "internalType": "bytes32",
          "name": "",
          "type": "bytes32"
        }
      ],
      "stateMutability": "view",
      "type": "function"
    },
    {
      "inputs": [],
      "name": "TOTAL_SUPPLY",
      "outputs": [
        {
          "internalType": "uint256",
          "name": "",
          "type": "uint256"
        }
      ],
      "stateMutability": "view",
      "type": "function"
    },
    {
      "inputs": [
        {
          "internalType": "address",
          "name": "to",
          "type": "address"
        },
        {
          "internalType": "uint256",
          "name": "tokenId",
          "type": "uint256"
        }
      ],
      "name": "approve",
      "outputs": [],
      "stateMutability": "nonpayable",
      "type": "function"
    },
    {
      "inputs": [
        {
          "internalType": "address",
          "name": "owner",
          "type": "address"
        }
      ],
      "name": "balanceOf",
      "outputs": [
        {
          "internalType": "uint256",
          "name": "",
          "type": "uint256"
        }
      ],
      "stateMutability": "view",
      "type": "function"
    },
    {
      "inputs": [
        {
          "internalType": "uint256",
          "name": "tokenId",
          "type": "uint256"
        }
      ],
      "name": "burn",
      "outputs": [],
      "stateMutability": "nonpayable",
      "type": "function"
    },
    {
      "inputs": [
        {
          "internalType": "uint256",
          "name": "tokenId",
          "type": "uint256"
        }
      ],
      "name": "getApproved",
      "outputs": [
        {
          "internalType": "address",
          "name": "",
          "type": "address"
        }
      ],
      "stateMutability": "view",
      "type": "function"
    },
    {
      "inputs": [
        {
          "internalType": "bytes32",
          "name": "role",
          "type": "bytes32"
        }
      ],
      "name": "getRoleAdmin",
      "outputs": [
        {
          "internalType": "bytes32",
          "name": "",
          "type": "bytes32"
        }
      ],
      "stateMutability": "view",
      "type": "function"
    },
    {
      "inputs": [
        {
          "internalType": "bytes32",
          "name": "role",
          "type": "bytes32"
        },
        {
          "internalType": "uint256",
          "name": "index",
          "type": "uint256"
        }
      ],
      "name": "getRoleMember",
      "outputs": [
        {
          "internalType": "address",
          "name": "",
          "type": "address"
        }
      ],
      "stateMutability": "view",
      "type": "function"
    },
    {
      "inputs": [
        {
          "internalType": "bytes32",
          "name": "role",
          "type": "bytes32"
        }
      ],
      "name": "getRoleMemberCount",
      "outputs": [
        {
          "internalType": "uint256",
          "name": "",
          "type": "uint256"
        }
      ],
      "stateMutability": "view",
      "type": "function"
    },
    {
      "inputs": [
        {
          "internalType": "bytes32",
          "name": "role",
          "type": "bytes32"
        },
        {
          "internalType": "address",
          "name": "account",
          "type": "address"
        }
      ],
      "name": "grantRole",
      "outputs": [],
      "stateMutability": "nonpayable",
      "type": "function"
    },
    {
      "inputs": [
        {
          "internalType": "bytes32",
          "name": "role",
          "type": "bytes32"
        },
        {
          "internalType": "address",
          "name": "account",
          "type": "address"
        }
      ],
      "name": "hasRole",
      "outputs": [
        {
          "internalType": "bool",
          "name": "",
          "type": "bool"
        }
      ],
      "stateMutability": "view",
      "type": "function"
    },
    {
      "inputs": [
        {
          "internalType": "address",
          "name": "owner",
          "type": "address"
        },
        {
          "internalType": "address",
          "name": "operator",
          "type": "address"
        }
      ],
      "name": "isApprovedForAll",
      "outputs": [
        {
          "internalType": "bool",
          "name": "",
          "type": "bool"
        }
      ],
      "stateMutability": "view",
      "type": "function"
    },
    {
      "inputs": [
        {
          "internalType": "address",
          "name": "recipient",
          "type": "address"
        },
        {
          "internalType": "uint256",
          "name": "tokenIdStart",
          "type": "uint256"
        },
        {
          "internalType": "uint256",
          "name": "tokenIdEnd",
          "type": "uint256"
        }
      ],
      "name": "mint",
      "outputs": [],
      "stateMutability": "nonpayable",
      "type": "function"
    },
    {
      "inputs": [],
      "name": "name",
      "outputs": [
        {
          "internalType": "string",
          "name": "",
          "type": "string"
        }
      ],
      "stateMutability": "view",
      "type": "function"
    },
    {
      "inputs": [
        {
          "internalType": "uint256",
          "name": "tokenId",
          "type": "uint256"
        }
      ],
      "name": "ownerOf",
      "outputs": [
        {
          "internalType": "address",
          "name": "",
          "type": "address"
        }
      ],
      "stateMutability": "view",
      "type": "function"
    },
    {
      "inputs": [],
      "name": "pause",
      "outputs": [],
      "stateMutability": "nonpayable",
      "type": "function"
    },
    {
      "inputs": [],
      "name": "paused",
      "outputs": [
        {
          "internalType": "bool",
          "name": "",
          "type": "bool"
        }
      ],
      "stateMutability": "view",
      "type": "function"
    },
    {
      "inputs": [
        {
          "internalType": "bytes32",
          "name": "role",
          "type": "bytes32"
        },
        {
          "internalType": "address",
          "name": "account",
          "type": "address"
        }
      ],
      "name": "renounceRole",
      "outputs": [],
      "stateMutability": "nonpayable",
      "type": "function"
    },
    {
      "inputs": [
        {
          "internalType": "bytes32",
          "name": "role",
          "type": "bytes32"
        },
        {
          "internalType": "address",
          "name": "account",
          "type": "address"
        }
      ],
      "name": "revokeRole",
      "outputs": [],
      "stateMutability": "nonpayable",
      "type": "function"
    },
    {
      "inputs": [
        {
          "internalType": "address",
          "name": "from",
          "type": "address"
        },
        {
          "internalType": "address",
          "name": "to",
          "type": "address"
        },
        {
          "internalType": "uint256",
          "name": "tokenId",
          "type": "uint256"
        }
      ],
      "name": "safeTransferFrom",
      "outputs": [],
      "stateMutability": "nonpayable",
      "type": "function"
    },
    {
      "inputs": [
        {
          "internalType": "address",
          "name": "from",
          "type": "address"
        },
        {
          "internalType": "address",
          "name": "to",
          "type": "address"
        },
        {
          "internalType": "uint256",
          "name": "tokenId",
          "type": "uint256"
        },
        {
          "internalType": "bytes",
          "name": "data",
          "type": "bytes"
        }
      ],
      "name": "safeTransferFrom",
      "outputs": [],
      "stateMutability": "nonpayable",
      "type": "function"
    },
    {
      "inputs": [
        {
          "internalType": "address",
          "name": "operator",
          "type": "address"
        },
        {
          "internalType": "bool",
          "name": "approved",
          "type": "bool"
        }
      ],
      "name": "setApprovalForAll",
      "outputs": [],
      "stateMutability": "nonpayable",
      "type": "function"
    },
    {
      "inputs": [
        {
          "internalType": "string",
          "name": "baseURI",
          "type": "string"
        }
      ],
      "name": "setBaseURI",
      "outputs": [],
      "stateMutability": "nonpayable",
      "type": "function"
    },
    {
      "inputs": [
        {
          "internalType": "bytes4",
          "name": "interfaceId",
          "type": "bytes4"
        }
      ],
      "name": "supportsInterface",
      "outputs": [
        {
          "internalType": "bool",
          "name": "",
          "type": "bool"
        }
      ],
      "stateMutability": "view",
      "type": "function"
    },
    {
      "inputs": [],
      "name": "symbol",
      "outputs": [
        {
          "internalType": "string",
          "name": "",
          "type": "string"
        }
      ],
      "stateMutability": "view",
      "type": "function"
    },
    {
      "inputs": [
        {
          "internalType": "uint256",
          "name": "index",
          "type": "uint256"
        }
      ],
      "name": "tokenByIndex",
      "outputs": [
        {
          "internalType": "uint256",
          "name": "",
          "type": "uint256"
        }
      ],
      "stateMutability": "view",
      "type": "function"
    },
    {
      "inputs": [
        {
          "internalType": "address",
          "name": "owner",
          "type": "address"
        },
        {
          "internalType": "uint256",
          "name": "index",
          "type": "uint256"
        }
      ],
      "name": "tokenOfOwnerByIndex",
      "outputs": [
        {
          "internalType": "uint256",
          "name": "",
          "type": "uint256"
        }
      ],
      "stateMutability": "view",
      "type": "function"
    },
    {
      "inputs": [
        {
          "internalType": "uint256",
          "name": "tokenId",
          "type": "uint256"
        }
      ],
      "name": "tokenURI",
      "outputs": [
        {
          "internalType": "string",
          "name": "",
          "type": "string"
        }
      ],
      "stateMutability": "view",
      "type": "function"
    },
    {
      "inputs": [],
      "name": "totalSupply",
      "outputs": [
        {
          "internalType": "uint256",
          "name": "",
          "type": "uint256"
        }
      ],
      "stateMutability": "view",
      "type": "function"
    },
    {
      "inputs": [
        {
          "internalType": "address",
          "name": "from",
          "type": "address"
        },
        {
          "internalType": "address",
          "name": "to",
          "type": "address"
        },
        {
          "internalType": "uint256",
          "name": "tokenId",
          "type": "uint256"
        }
      ],
      "name": "transferFrom",
      "outputs": [],
      "stateMutability": "nonpayable",
      "type": "function"
    },
    {
      "inputs": [],
      "name": "unpause",
      "outputs": [],
      "stateMutability": "nonpayable",
      "type": "function"
    }
  ],
  "bytecode": "0x60806040523480156200001157600080fd5b5060405162002e6338038062002e638339810160408190526200003491620003b9565b8351849084906200004d90600290602085019062000260565b5080516200006390600390602084019062000260565b5050600c805460ff191690555081516200008590600e90602085019062000260565b50600f819055620000996000335b620000fb565b620000c57f9f2df0fed2c77648de5860a4cc508cd0818c85b8b8a1ab4ceeef8d981c8956a63362000093565b620000f17f65d7a28e3265b37a6474929f336521b332c1681b933f6cb9f3376673440d862a3362000093565b50505050620004a1565b6200010782826200010b565b5050565b6200012282826200014e60201b62000e071760201c565b60008281526001602090815260409091206200014991839062000e8b620001ee821b17901c565b505050565b6000828152602081815260408083206001600160a01b038516845290915290205460ff1662000107576000828152602081815260408083206001600160a01b03851684529091529020805460ff19166001179055620001aa3390565b6001600160a01b0316816001600160a01b0316837f2f8788117e7eff1d82e926ec794901d17c78024a50270940304540a733656f0d60405160405180910390a45050565b600062000205836001600160a01b0384166200020e565b90505b92915050565b6000818152600183016020526040812054620002575750815460018181018455600084815260208082209093018490558454848252828601909352604090209190915562000208565b50600062000208565b8280546200026e906200044e565b90600052602060002090601f016020900481019282620002925760008555620002dd565b82601f10620002ad57805160ff1916838001178555620002dd565b82800160010185558215620002dd579182015b82811115620002dd578251825591602001919060010190620002c0565b50620002eb929150620002ef565b5090565b5b80821115620002eb5760008155600101620002f0565b600082601f83011262000317578081fd5b81516001600160401b03808211156200033457620003346200048b565b604051601f8301601f19908116603f011681019082821181831017156200035f576200035f6200048b565b816040528381526020925086838588010111156200037b578485fd5b8491505b838210156200039e57858201830151818301840152908201906200037f565b83821115620003af57848385830101525b9695505050505050565b60008060008060808587031215620003cf578384fd5b84516001600160401b0380821115620003e6578586fd5b620003f48883890162000306565b955060208701519150808211156200040a578485fd5b620004188883890162000306565b945060408701519150808211156200042e578384fd5b506200043d8782880162000306565b606096909601519497939650505050565b6002810460018216806200046357607f821691505b602082108114156200048557634e487b7160e01b600052602260045260246000fd5b50919050565b634e487b7160e01b600052604160045260246000fd5b6129b280620004b16000396000f3fe608060405234801561001057600080fd5b50600436106101fb5760003560e01c80635c975abb1161011a578063a217fddf116100ad578063ca15c8731161007c578063ca15c87314610416578063d539139314610429578063d547741f14610450578063e63ab1e914610463578063e985e9c514610478576101fb565b8063a217fddf146103d5578063a22cb465146103dd578063b88d4fde146103f0578063c87b56dd14610403576101fb565b80639010d07c116100e95780639010d07c1461039e578063902d55a5146103b157806391d14854146103ba57806395d89b41146103cd576101fb565b80635c975abb146103655780636352211e1461037057806370a08231146103835780638456cb5914610396576101fb565b80632f2ff15d1161019257806342842e0e1161016157806342842e0e1461031957806342966c681461032c5780634f6ccce71461033f57806355f804b314610352576101fb565b80632f2ff15d146102d85780632f745c59146102eb57806336568abe146102fe5780633f4ba83a14610311576101fb565b8063156e29f6116101ce578063156e29f61461027d57806318160ddd1461029057806323b872dd146102a2578063248a9ca3146102b5576101fb565b806301ffc9a71461020057806306fdde0314610228578063081812fc1461023d578063095ea7b314610268575b600080fd5b61021361020e3660046124ff565b6104b4565b60405190151581526020015b60405180910390f35b6102306104c7565b60405161021f91906126df565b61025061024b3660046124a4565b610559565b6040516001600160a01b03909116815260200161021f565b61027b610276366004612449565b610580565b005b61027b61028b366004612472565b61069b565b600a545b60405190815260200161021f565b61027b6102b036600461235b565b610877565b6102946102c33660046124a4565b60009081526020819052604090206001015490565b61027b6102e63660046124bc565b6108a9565b6102946102f9366004612449565b6108ce565b61027b61030c3660046124bc565b610967565b61027b6109e5565b61027b61032736600461235b565b610a7b565b61027b61033a3660046124a4565b610a96565b61029461034d3660046124a4565b610ac7565b61027b610360366004612537565b610b68565b600c5460ff16610213565b61025061037e3660046124a4565b610baf565b61029461039136600461230f565b610c0f565b61027b610c95565b6102506103ac3660046124de565b610cd1565b610294600f5481565b6102136103c83660046124bc565b610cf0565b610230610d19565b610294600081565b61027b6103eb36600461240f565b610d28565b61027b6103fe366004612396565b610d33565b6102306104113660046124a4565b610d65565b6102946104243660046124a4565b610dcb565b6102947f9f2df0fed2c77648de5860a4cc508cd0818c85b8b8a1ab4ceeef8d981c8956a681565b61027b61045e3660046124bc565b610de2565b61029460008051602061295d83398151915281565b610213610486366004612329565b6001600160a01b03918216600090815260076020908152604080832093909416825291909152205460ff1690565b60006104bf82610ea0565b90505b919050565b6060600280546104d6906128c4565b80601f0160208091040260200160405190810160405280929190818152602001828054610502906128c4565b801561054f5780601f106105245761010080835404028352916020019161054f565b820191906000526020600020905b81548152906001019060200180831161053257829003601f168201915b5050505050905090565b600061056482610ec5565b506000908152600660205260409020546001600160a01b031690565b600061058b82610baf565b9050806001600160a01b0316836001600160a01b031614156105fe5760405162461bcd60e51b815260206004820152602160248201527f4552433732313a20617070726f76616c20746f2063757272656e74206f776e656044820152603960f91b60648201526084015b60405180910390fd5b336001600160a01b038216148061061a575061061a8133610486565b61068c5760405162461bcd60e51b815260206004820152603d60248201527f4552433732313a20617070726f76652063616c6c6572206973206e6f7420746f60448201527f6b656e206f776e6572206f7220617070726f76656420666f7220616c6c00000060648201526084016105f5565b6106968383610f24565b505050565b6106c57f9f2df0fed2c77648de5860a4cc508cd0818c85b8b8a1ab4ceeef8d981c8956a6336103c8565b6107015760405162461bcd60e51b815260206004820152600d60248201526c2737903832b936b4b9b9b4b7b760991b60448201526064016105f5565b600f548111156107485760405162461bcd60e51b8152602060048201526012602482015271746f6b656e4964456e6420746f6f2062696760701b60448201526064016105f5565b600d54821161078a5760405162461bcd60e51b815260206004820152600e60248201526d105b1c9958591e481b5a5b9d195960921b60448201526064016105f5565b600d5481116107cc5760405162461bcd60e51b815260206004820152600e60248201526d105b1c9958591e481b5a5b9d195960921b60448201526064016105f5565b600d546107da906001612833565b82146107f86107e8600d5490565b6107f3906001612833565b610f92565b60405160200161080891906125e8565b604051602081830303815290604052906108355760405162461bcd60e51b81526004016105f591906126df565b50815b8181116108715761084d600d80546001019055565b61085f8461085a600d5490565b61103d565b80610869816128ff565b915050610838565b50505050565b610882335b826111d7565b61089e5760405162461bcd60e51b81526004016105f5906126f2565b610696838383611256565b6000828152602081905260409020600101546108c4816113c7565b61069683836113d1565b60006108d983610c0f565b821061093b5760405162461bcd60e51b815260206004820152602b60248201527f455243373231456e756d657261626c653a206f776e657220696e646578206f7560448201526a74206f6620626f756e647360a81b60648201526084016105f5565b506001600160a01b03821660009081526008602090815260408083208484529091529020545b92915050565b6001600160a01b03811633146109d75760405162461bcd60e51b815260206004820152602f60248201527f416363657373436f6e74726f6c3a2063616e206f6e6c792072656e6f756e636560448201526e103937b632b9903337b91039b2b63360891b60648201526084016105f5565b6109e182826113f3565b5050565b6109fd60008051602061295d833981519152336103c8565b610a71576040805162461bcd60e51b81526020600482015260248101919091527f4552433732315072657365744d696e7465725061757365724175746f49643a2060448201527f6d75737420686176652070617573657220726f6c6520746f20756e706175736560648201526084016105f5565b610a79611415565b565b61069683838360405180602001604052806000815250610d33565b610a9f3361087c565b610abb5760405162461bcd60e51b81526004016105f5906126f2565b610ac481611467565b50565b6000610ad2600a5490565b8210610b355760405162461bcd60e51b815260206004820152602c60248201527f455243373231456e756d657261626c653a20676c6f62616c20696e646578206f60448201526b7574206f6620626f756e647360a01b60648201526084016105f5565b600a8281548110610b5657634e487b7160e01b600052603260045260246000fd5b90600052602060002001549050919050565b610b8060008051602061295d833981519152336103c8565b610b9c5760405162461bcd60e51b81526004016105f5906127d6565b80516109e190600e9060208401906121e9565b6000818152600460205260408120546001600160a01b0316806104bf5760405162461bcd60e51b8152602060048201526018602482015277115490cdcc8c4e881a5b9d985b1a59081d1bdad95b88125160421b60448201526064016105f5565b60006001600160a01b038216610c795760405162461bcd60e51b815260206004820152602960248201527f4552433732313a2061646472657373207a65726f206973206e6f7420612076616044820152683634b21037bbb732b960b91b60648201526084016105f5565b506001600160a01b031660009081526005602052604090205490565b610cad60008051602061295d833981519152336103c8565b610cc95760405162461bcd60e51b81526004016105f5906127d6565b610a7961150b565b6000828152600160205260408120610ce99083611548565b9392505050565b6000918252602082815260408084206001600160a01b0393909316845291905290205460ff1690565b6060600380546104d6906128c4565b6109e1338383611554565b610d3d33836111d7565b610d595760405162461bcd60e51b81526004016105f5906126f2565b61087184848484611623565b6060610d7082610ec5565b6000610d7a611656565b90506000815111610d9a5760405180602001604052806000815250610ce9565b80610da484610f92565b604051602001610db59291906125a9565b6040516020818303038152906040529392505050565b60008181526001602052604081206104bf90611665565b600082815260208190526040902060010154610dfd816113c7565b61069683836113f3565b610e118282610cf0565b6109e1576000828152602081815260408083206001600160a01b03851684529091529020805460ff19166001179055610e473390565b6001600160a01b0316816001600160a01b0316837f2f8788117e7eff1d82e926ec794901d17c78024a50270940304540a733656f0d60405160405180910390a45050565b6000610ce9836001600160a01b03841661166f565b60006001600160e01b0319821663780e9d6360e01b14806104bf57506104bf826116be565b6000818152600460205260409020546001600160a01b0316610ac45760405162461bcd60e51b8152602060048201526018602482015277115490cdcc8c4e881a5b9d985b1a59081d1bdad95b88125160421b60448201526064016105f5565b600081815260066020526040902080546001600160a01b0319166001600160a01b0384169081179091558190610f5982610baf565b6001600160a01b03167f8c5be1e5ebec7d5bd14f71427d1e84f3dd0314c0f7b2291e5b200ac8c7c3b92560405160405180910390a45050565b60606000610f9f836116fe565b600101905060008167ffffffffffffffff811115610fcd57634e487b7160e01b600052604160045260246000fd5b6040519080825280601f01601f191660200182016040528015610ff7576020820181803683370190505b5090508181016020015b600019016f181899199a1a9b1b9c1cb0b131b232b360811b600a86061a8153600a850494508461103057611035565b611001565b509392505050565b6001600160a01b0382166110935760405162461bcd60e51b815260206004820181905260248201527f4552433732313a206d696e7420746f20746865207a65726f206164647265737360448201526064016105f5565b6000818152600460205260409020546001600160a01b0316156110f85760405162461bcd60e51b815260206004820152601c60248201527f4552433732313a20746f6b656e20616c7265616479206d696e7465640000000060448201526064016105f5565b6111066000838360016117d6565b6000818152600460205260409020546001600160a01b03161561116b5760405162461bcd60e51b815260206004820152601c60248201527f4552433732313a20746f6b656e20616c7265616479206d696e7465640000000060448201526064016105f5565b6001600160a01b038216600081815260056020908152604080832080546001019055848352600490915280822080546001600160a01b0319168417905551839291907fddf252ad1be2c89b69c2b068fc378daa952ba7f163c4a11628f55a4df523b3ef908290a46109e1565b6000806111e383610baf565b9050806001600160a01b0316846001600160a01b0316148061122a57506001600160a01b0380821660009081526007602090815260408083209388168352929052205460ff165b8061124e5750836001600160a01b031661124384610559565b6001600160a01b0316145b949350505050565b826001600160a01b031661126982610baf565b6001600160a01b03161461128f5760405162461bcd60e51b81526004016105f590612791565b6001600160a01b0382166112f15760405162461bcd60e51b8152602060048201526024808201527f4552433732313a207472616e7366657220746f20746865207a65726f206164646044820152637265737360e01b60648201526084016105f5565b6112fe83838360016117d6565b826001600160a01b031661131182610baf565b6001600160a01b0316146113375760405162461bcd60e51b81526004016105f590612791565b600081815260066020908152604080832080546001600160a01b03199081169091556001600160a01b0387811680865260058552838620805460001901905590871680865283862080546001019055868652600490945282852080549092168417909155905184937fddf252ad1be2c89b69c2b068fc378daa952ba7f163c4a11628f55a4df523b3ef91a4610696565b610ac481336117e2565b6113db8282610e07565b60008281526001602052604090206106969082610e8b565b6113fd828261183b565b600082815260016020526040902061069690826118a0565b61141d6118b5565b600c805460ff191690557f5db9ee0a495bf2e6ff9c91a7834c1ba4fdd244a5e8aa4e537bd38aeae4b073aa335b6040516001600160a01b03909116815260200160405180910390a1565b600061147282610baf565b90506114828160008460016117d6565b61148b82610baf565b600083815260066020908152604080832080546001600160a01b03199081169091556001600160a01b0385168085526005845282852080546000190190558785526004909352818420805490911690555192935084927fddf252ad1be2c89b69c2b068fc378daa952ba7f163c4a11628f55a4df523b3ef908390a46109e1565b6115136118fe565b600c805460ff191660011790557f62e78cea01bee320cd4e420270b5ea74000d11b0c9f74754ebdbfc544b05a25861144a3390565b6000610ce98383611944565b816001600160a01b0316836001600160a01b031614156115b65760405162461bcd60e51b815260206004820152601960248201527f4552433732313a20617070726f766520746f2063616c6c65720000000000000060448201526064016105f5565b6001600160a01b03838116600081815260076020908152604080832094871680845294825291829020805460ff191686151590811790915591519182527f17307eab39ab6107e8899845ad3d59bd9653f200f220920489ca2b5937696c31910160405180910390a3505050565b61162e848484611256565b61163a8484848461197c565b6108715760405162461bcd60e51b81526004016105f59061273f565b6060600e80546104d6906128c4565b60006104bf825490565b60008181526001830160205260408120546116b657508154600181810184556000848152602080822090930184905584548482528286019093526040902091909155610961565b506000610961565b60006001600160e01b031982166380ac58cd60e01b14806116ef57506001600160e01b03198216635b5e139f60e01b145b806104bf57506104bf82611a89565b60008072184f03e93ff9f4daa797ed6e38ed64bf6a1f0160401b831061173d5772184f03e93ff9f4daa797ed6e38ed64bf6a1f0160401b830492506040015b6d04ee2d6d415b85acef81000000008310611769576d04ee2d6d415b85acef8100000000830492506020015b662386f26fc10000831061178757662386f26fc10000830492506010015b6305f5e100831061179f576305f5e100830492506008015b61271083106117b357612710830492506004015b606483106117c5576064830492506002015b600a83106104bf5760010192915050565b61087184848484611aae565b6117ec8282610cf0565b6109e1576117f981611b21565b611804836020611b33565b60405160200161181592919061262d565b60408051601f198184030181529082905262461bcd60e51b82526105f5916004016126df565b6118458282610cf0565b156109e1576000828152602081815260408083206001600160a01b0385168085529252808320805460ff1916905551339285917ff6391f5c32d9c69d2a47ea670b442974b53935d1edc7fd64eb21e047a839171b9190a45050565b6000610ce9836001600160a01b038416611d15565b600c5460ff16610a795760405162461bcd60e51b815260206004820152601460248201527314185d5cd8589b194e881b9bdd081c185d5cd95960621b60448201526064016105f5565b600c5460ff1615610a795760405162461bcd60e51b815260206004820152601060248201526f14185d5cd8589b194e881c185d5cd95960821b60448201526064016105f5565b600082600001828154811061196957634e487b7160e01b600052603260045260246000fd5b9060005260206000200154905092915050565b60006001600160a01b0384163b15611a7e57604051630a85bd0160e11b81526001600160a01b0385169063150b7a02906119c09033908990889088906004016126a2565b602060405180830381600087803b1580156119da57600080fd5b505af1925050508015611a0a575060408051601f3d908101601f19168201909252611a079181019061251b565b60015b611a64573d808015611a38576040519150601f19603f3d011682016040523d82523d6000602084013e611a3d565b606091505b508051611a5c5760405162461bcd60e51b81526004016105f59061273f565b805181602001fd5b6001600160e01b031916630a85bd0160e11b14905061124e565b506001949350505050565b60006001600160e01b03198216635a05180f60e01b14806104bf57506104bf82611e32565b611aba84848484611e67565b600c5460ff16156108715760405162461bcd60e51b815260206004820152602b60248201527f4552433732315061757361626c653a20746f6b656e207472616e73666572207760448201526a1a1a5b19481c185d5cd95960aa1b60648201526084016105f5565b60606104bf6001600160a01b03831660145b60606000611b4283600261284b565b611b4d906002612833565b67ffffffffffffffff811115611b7357634e487b7160e01b600052604160045260246000fd5b6040519080825280601f01601f191660200182016040528015611b9d576020820181803683370190505b509050600360fc1b81600081518110611bc657634e487b7160e01b600052603260045260246000fd5b60200101906001600160f81b031916908160001a905350600f60fb1b81600181518110611c0357634e487b7160e01b600052603260045260246000fd5b60200101906001600160f81b031916908160001a9053506000611c2784600261284b565b611c32906001612833565b90505b6001811115611cc6576f181899199a1a9b1b9c1cb0b131b232b360811b85600f1660108110611c7457634e487b7160e01b600052603260045260246000fd5b1a60f81b828281518110611c9857634e487b7160e01b600052603260045260246000fd5b60200101906001600160f81b031916908160001a90535060049490941c93611cbf816128ad565b9050611c35565b508315610ce95760405162461bcd60e51b815260206004820181905260248201527f537472696e67733a20686578206c656e67746820696e73756666696369656e7460448201526064016105f5565b60008181526001830160205260408120548015611e28576000611d3960018361286a565b8554909150600090611d4d9060019061286a565b9050818114611dce576000866000018281548110611d7b57634e487b7160e01b600052603260045260246000fd5b9060005260206000200154905080876000018481548110611dac57634e487b7160e01b600052603260045260246000fd5b6000918252602080832090910192909255918252600188019052604090208390555b8554869080611ded57634e487b7160e01b600052603160045260246000fd5b600190038181906000526020600020016000905590558560010160008681526020019081526020016000206000905560019350505050610961565b6000915050610961565b60006001600160e01b03198216637965db0b60e01b14806104bf57506301ffc9a760e01b6001600160e01b03198316146104bf565b611e7384848484611fa7565b6001811115611ee25760405162461bcd60e51b815260206004820152603560248201527f455243373231456e756d657261626c653a20636f6e7365637574697665207472604482015274185b9cd9995c9cc81b9bdd081cdd5c1c1bdc9d1959605a1b60648201526084016105f5565b816001600160a01b038516611f3e57611f3981600a80546000838152600b60205260408120829055600182018355919091527fc65a7bb8d6351c1cf70c95a316cc6a92839c986682d98bc35f958f4883f9d2a80155565b611f61565b836001600160a01b0316856001600160a01b031614611f6157611f61858261202f565b6001600160a01b038416611f7d57611f78816120cc565b611fa0565b846001600160a01b0316846001600160a01b031614611fa057611fa084826121a5565b5050505050565b6001811115610871576001600160a01b03841615611fed576001600160a01b03841660009081526005602052604081208054839290611fe790849061286a565b90915550505b6001600160a01b03831615610871576001600160a01b03831660009081526005602052604081208054839290612024908490612833565b909155505050505050565b6000600161203c84610c0f565b612046919061286a565b600083815260096020526040902054909150808214612099576001600160a01b03841660009081526008602090815260408083208584528252808320548484528184208190558352600990915290208190555b5060009182526009602090815260408084208490556001600160a01b039094168352600881528383209183525290812055565b600a546000906120de9060019061286a565b6000838152600b6020526040812054600a805493945090928490811061211457634e487b7160e01b600052603260045260246000fd5b9060005260206000200154905080600a838154811061214357634e487b7160e01b600052603260045260246000fd5b6000918252602080832090910192909255828152600b9091526040808220849055858252812055600a80548061218957634e487b7160e01b600052603160045260246000fd5b6001900381819060005260206000200160009055905550505050565b60006121b083610c0f565b6001600160a01b039093166000908152600860209081526040808320868452825280832085905593825260099052919091209190915550565b8280546121f5906128c4565b90600052602060002090601f016020900481019282612217576000855561225d565b82601f1061223057805160ff191683800117855561225d565b8280016001018555821561225d579182015b8281111561225d578251825591602001919060010190612242565b5061226992915061226d565b5090565b5b80821115612269576000815560010161226e565b600067ffffffffffffffff8084111561229d5761229d612930565b604051601f8501601f19908116603f011681019082821181831017156122c5576122c5612930565b816040528093508581528686860111156122de57600080fd5b858560208301376000602087830101525050509392505050565b80356001600160a01b03811681146104c257600080fd5b600060208284031215612320578081fd5b610ce9826122f8565b6000806040838503121561233b578081fd5b612344836122f8565b9150612352602084016122f8565b90509250929050565b60008060006060848603121561236f578081fd5b612378846122f8565b9250612386602085016122f8565b9150604084013590509250925092565b600080600080608085870312156123ab578081fd5b6123b4856122f8565b93506123c2602086016122f8565b925060408501359150606085013567ffffffffffffffff8111156123e4578182fd5b8501601f810187136123f4578182fd5b61240387823560208401612282565b91505092959194509250565b60008060408385031215612421578182fd5b61242a836122f8565b91506020830135801515811461243e578182fd5b809150509250929050565b6000806040838503121561245b578182fd5b612464836122f8565b946020939093013593505050565b600080600060608486031215612486578283fd5b61248f846122f8565b95602085013595506040909401359392505050565b6000602082840312156124b5578081fd5b5035919050565b600080604083850312156124ce578182fd5b82359150612352602084016122f8565b600080604083850312156124f0578182fd5b50508035926020909101359150565b600060208284031215612510578081fd5b8135610ce981612946565b60006020828403121561252c578081fd5b8151610ce981612946565b600060208284031215612548578081fd5b813567ffffffffffffffff81111561255e578182fd5b8201601f8101841361256e578182fd5b61124e84823560208401612282565b60008151808452612595816020860160208601612881565b601f01601f19169290920160200192915050565b600083516125bb818460208801612881565b8351908301906125cf818360208801612881565b64173539b7b760d91b9101908152600501949350505050565b60007f746f6b656e496453746172742073686f756c642073657420000000000000000082528251612620816018850160208701612881565b9190910160180192915050565b60007f416363657373436f6e74726f6c3a206163636f756e742000000000000000000082528351612665816017850160208801612881565b7001034b99036b4b9b9b4b733903937b6329607d1b6017918401918201528351612696816028840160208801612881565b01602801949350505050565b6001600160a01b03858116825284166020820152604081018390526080606082018190526000906126d59083018461257d565b9695505050505050565b600060208252610ce9602083018461257d565b6020808252602d908201527f4552433732313a2063616c6c6572206973206e6f7420746f6b656e206f776e6560408201526c1c881bdc88185c1c1c9bdd9959609a1b606082015260800190565b60208082526032908201527f4552433732313a207472616e7366657220746f206e6f6e20455243373231526560408201527131b2b4bb32b91034b6b83632b6b2b73a32b960711b606082015260800190565b60208082526025908201527f4552433732313a207472616e736665722066726f6d20696e636f72726563742060408201526437bbb732b960d91b606082015260800190565b6020808252603e908201527f4552433732315072657365744d696e7465725061757365724175746f49643a2060408201527f6d75737420686176652070617573657220726f6c6520746f2070617573650000606082015260800190565b600082198211156128465761284661291a565b500190565b60008160001904831182151516156128655761286561291a565b500290565b60008282101561287c5761287c61291a565b500390565b60005b8381101561289c578181015183820152602001612884565b838111156108715750506000910152565b6000816128bc576128bc61291a565b506000190190565b6002810460018216806128d857607f821691505b602082108114156128f957634e487b7160e01b600052602260045260246000fd5b50919050565b60006000198214156129135761291361291a565b5060010190565b634e487b7160e01b600052601160045260246000fd5b634e487b7160e01b600052604160045260246000fd5b6001600160e01b031981168114610ac457600080fdfe65d7a28e3265b37a6474929f336521b332c1681b933f6cb9f3376673440d862aa26469706673582212200eb6d091833027d5d0146039b1fe594493eeb0afbb067aa9c85f746a6c3ad51e64736f6c63430008020033",
  "linkReferences": {},
  "deployedLinkReferences": {}
}