{
  "_format": "hh-sol-artifact-1",
  "contractName": "SBT",
  "sourceName": "contracts/SBT.sol",
  "abi": [
    {
      "inputs": [
        {
          "internalType": "string",
          "name": "name",
          "type": "string"
        },
        {
          "internalType": "string",
          "name": "symbol",
          "type": "string"
        },
        {
          "internalType": "uint256",
          "name": "totalSupply",
          "type": "uint256"
        }
      ],
      "stateMutability": "nonpayable",
      "type": "constructor"
    },
    {
      "anonymous": false,
      "inputs": [
        {
          "indexed": true,
          "internalType": "address",
          "name": "owner",
          "type": "address"
        },
        {
          "indexed": true,
          "internalType": "address",
          "name": "approved",
          "type": "address"
        },
        {
          "indexed": true,
          "internalType": "uint256",
          "name": "tokenId",
          "type": "uint256"
        }
      ],
      "name": "Approval",
      "type": "event"
    },
    {
      "anonymous": false,
      "inputs": [
        {
          "indexed": true,
          "internalType": "address",
          "name": "owner",
          "type": "address"
        },
        {
          "indexed": true,
          "internalType": "address",
          "name": "operator",
          "type": "address"
        },
        {
          "indexed": false,
          "internalType": "bool",
          "name": "approved",
          "type": "bool"
        }
      ],
      "name": "ApprovalForAll",
      "type": "event"
    },
    {
      "anonymous": false,
      "inputs": [
        {
          "indexed": false,
          "internalType": "uint256",
          "name": "tokenId",
          "type": "uint256"
        }
      ],
      "name": "Locked",
      "type": "event"
    },
    {
      "anonymous": false,
      "inputs": [
        {
          "indexed": true,
          "internalType": "address",
          "name": "previousOwner",
          "type": "address"
        },
        {
          "indexed": true,
          "internalType": "address",
          "name": "newOwner",
          "type": "address"
        }
      ],
      "name": "OwnershipTransferred",
      "type": "event"
    },
    {
      "anonymous": false,
      "inputs": [
        {
          "indexed": true,
          "internalType": "address",
          "name": "from",
          "type": "address"
        },
        {
          "indexed": true,
          "internalType": "address",
          "name": "to",
          "type": "address"
        },
        {
          "indexed": true,
          "internalType": "uint256",
          "name": "tokenId",
          "type": "uint256"
        }
      ],
      "name": "Transfer",
      "type": "event"
    },
    {
      "anonymous": false,
      "inputs": [
        {
          "indexed": false,
          "internalType": "uint256",
          "name": "tokenId",
          "type": "uint256"
        }
      ],
      "name": "Unlocked",
      "type": "event"
    },
    {
      "inputs": [],
      "name": "TOTAL_SUPPLY",
      "outputs": [
        {
          "internalType": "uint256",
          "name": "",
          "type": "uint256"
        }
      ],
      "stateMutability": "view",
      "type": "function"
    },
    {
      "inputs": [
        {
          "internalType": "address",
          "name": "to",
          "type": "address"
        },
        {
          "internalType": "uint256",
          "name": "tokenId",
          "type": "uint256"
        }
      ],
      "name": "approve",
      "outputs": [],
      "stateMutability": "nonpayable",
      "type": "function"
    },
    {
      "inputs": [
        {
          "internalType": "address",
          "name": "owner",
          "type": "address"
        }
      ],
      "name": "balanceOf",
      "outputs": [
        {
          "internalType": "uint256",
          "name": "",
          "type": "uint256"
        }
      ],
      "stateMutability": "view",
      "type": "function"
    },
    {
      "inputs": [
        {
          "internalType": "uint256",
          "name": "tokenId",
          "type": "uint256"
        }
      ],
      "name": "burn",
      "outputs": [],
      "stateMutability": "nonpayable",
      "type": "function"
    },
    {
      "inputs": [
        {
          "internalType": "uint256",
          "name": "tokenId",
          "type": "uint256"
        }
      ],
      "name": "getApproved",
      "outputs": [
        {
          "internalType": "address",
          "name": "",
          "type": "address"
        }
      ],
      "stateMutability": "view",
      "type": "function"
    },
    {
      "inputs": [
        {
          "internalType": "address",
          "name": "owner",
          "type": "address"
        },
        {
          "internalType": "address",
          "name": "operator",
          "type": "address"
        }
      ],
      "name": "isApprovedForAll",
      "outputs": [
        {
          "internalType": "bool",
          "name": "",
          "type": "bool"
        }
      ],
      "stateMutability": "view",
      "type": "function"
    },
    {
      "inputs": [
        {
          "internalType": "uint256",
          "name": "tokenId",
          "type": "uint256"
        }
      ],
      "name": "locked",
      "outputs": [
        {
          "internalType": "bool",
          "name": "",
          "type": "bool"
        }
      ],
      "stateMutability": "view",
      "type": "function"
    },
    {
      "inputs": [
        {
          "internalType": "address",
          "name": "to",
          "type": "address"
        },
        {
          "internalType": "uint256",
          "name": "tokenId",
          "type": "uint256"
        },
        {
          "internalType": "string",
          "name": "tokenUri",
          "type": "string"
        }
      ],
      "name": "mint",
      "outputs": [],
      "stateMutability": "nonpayable",
      "type": "function"
    },
    {
      "inputs": [],
      "name": "name",
      "outputs": [
        {
          "internalType": "string",
          "name": "",
          "type": "string"
        }
      ],
      "stateMutability": "view",
      "type": "function"
    },
    {
      "inputs": [],
      "name": "owner",
      "outputs": [
        {
          "internalType": "address",
          "name": "",
          "type": "address"
        }
      ],
      "stateMutability": "view",
      "type": "function"
    },
    {
      "inputs": [
        {
          "internalType": "uint256",
          "name": "tokenId",
          "type": "uint256"
        }
      ],
      "name": "ownerOf",
      "outputs": [
        {
          "internalType": "address",
          "name": "",
          "type": "address"
        }
      ],
      "stateMutability": "view",
      "type": "function"
    },
    {
      "inputs": [],
      "name": "renounceOwnership",
      "outputs": [],
      "stateMutability": "nonpayable",
      "type": "function"
    },
    {
      "inputs": [
        {
          "internalType": "address",
          "name": "from",
          "type": "address"
        },
        {
          "internalType": "address",
          "name": "to",
          "type": "address"
        },
        {
          "internalType": "uint256",
          "name": "tokenId",
          "type": "uint256"
        }
      ],
      "name": "safeTransferFrom",
      "outputs": [],
      "stateMutability": "nonpayable",
      "type": "function"
    },
    {
      "inputs": [
        {
          "internalType": "address",
          "name": "from",
          "type": "address"
        },
        {
          "internalType": "address",
          "name": "to",
          "type": "address"
        },
        {
          "internalType": "uint256",
          "name": "tokenId",
          "type": "uint256"
        },
        {
          "internalType": "bytes",
          "name": "data",
          "type": "bytes"
        }
      ],
      "name": "safeTransferFrom",
      "outputs": [],
      "stateMutability": "nonpayable",
      "type": "function"
    },
    {
      "inputs": [
        {
          "internalType": "address",
          "name": "operator",
          "type": "address"
        },
        {
          "internalType": "bool",
          "name": "approved",
          "type": "bool"
        }
      ],
      "name": "setApprovalForAll",
      "outputs": [],
      "stateMutability": "nonpayable",
      "type": "function"
    },
    {
      "inputs": [
        {
          "internalType": "bytes4",
          "name": "_interfaceId",
          "type": "bytes4"
        }
      ],
      "name": "supportsInterface",
      "outputs": [
        {
          "internalType": "bool",
          "name": "",
          "type": "bool"
        }
      ],
      "stateMutability": "view",
      "type": "function"
    },
    {
      "inputs": [],
      "name": "symbol",
      "outputs": [
        {
          "internalType": "string",
          "name": "",
          "type": "string"
        }
      ],
      "stateMutability": "view",
      "type": "function"
    },
    {
      "inputs": [
        {
          "internalType": "uint256",
          "name": "index",
          "type": "uint256"
        }
      ],
      "name": "tokenByIndex",
      "outputs": [
        {
          "internalType": "uint256",
          "name": "",
          "type": "uint256"
        }
      ],
      "stateMutability": "view",
      "type": "function"
    },
    {
      "inputs": [
        {
          "internalType": "address",
          "name": "owner",
          "type": "address"
        },
        {
          "internalType": "uint256",
          "name": "index",
          "type": "uint256"
        }
      ],
      "name": "tokenOfOwnerByIndex",
      "outputs": [
        {
          "internalType": "uint256",
          "name": "",
          "type": "uint256"
        }
      ],
      "stateMutability": "view",
      "type": "function"
    },
    {
      "inputs": [
        {
          "internalType": "uint256",
          "name": "tokenId",
          "type": "uint256"
        }
      ],
      "name": "tokenURI",
      "outputs": [
        {
          "internalType": "string",
          "name": "",
          "type": "string"
        }
      ],
      "stateMutability": "view",
      "type": "function"
    },
    {
      "inputs": [],
      "name": "totalSupply",
      "outputs": [
        {
          "internalType": "uint256",
          "name": "",
          "type": "uint256"
        }
      ],
      "stateMutability": "view",
      "type": "function"
    },
    {
      "inputs": [
        {
          "internalType": "address",
          "name": "from",
          "type": "address"
        },
        {
          "internalType": "address",
          "name": "to",
          "type": "address"
        },
        {
          "internalType": "uint256",
          "name": "tokenId",
          "type": "uint256"
        }
      ],
      "name": "transferFrom",
      "outputs": [],
      "stateMutability": "nonpayable",
      "type": "function"
    },
    {
      "inputs": [
        {
          "internalType": "address",
          "name": "newOwner",
          "type": "address"
        }
      ],
      "name": "transferOwnership",
      "outputs": [],
      "stateMutability": "nonpayable",
      "type": "function"
    }
  ],
  "bytecode": "0x60806040523480156200001157600080fd5b50604051620024423803806200244283398101604081905262000034916200023b565b8251839083906200004d906000906020850190620000e2565b50805162000063906001906020840190620000e2565b505050620000806200007a6200008c60201b60201c565b62000090565b600c5550620002fe9050565b3390565b600b80546001600160a01b038381166001600160a01b0319831681179093556040519116919082907f8be0079c531659141344cd1fd0a4f28419497f9722a3daafe3b4186f6b6457e090600090a35050565b828054620000f090620002ab565b90600052602060002090601f0160209004810192826200011457600085556200015f565b82601f106200012f57805160ff19168380011785556200015f565b828001600101855582156200015f579182015b828111156200015f57825182559160200191906001019062000142565b506200016d92915062000171565b5090565b5b808211156200016d576000815560010162000172565b600082601f83011262000199578081fd5b81516001600160401b0380821115620001b657620001b6620002e8565b604051601f8301601f19908116603f01168101908282118183101715620001e157620001e1620002e8565b81604052838152602092508683858801011115620001fd578485fd5b8491505b8382101562000220578582018301518183018401529082019062000201565b838211156200023157848385830101525b9695505050505050565b60008060006060848603121562000250578283fd5b83516001600160401b038082111562000267578485fd5b620002758783880162000188565b945060208601519150808211156200028b578384fd5b506200029a8682870162000188565b925050604084015190509250925092565b600281046001821680620002c057607f821691505b60208210811415620002e257634e487b7160e01b600052602260045260246000fd5b50919050565b634e487b7160e01b600052604160045260246000fd5b612134806200030e6000396000f3fe608060405234801561001057600080fd5b506004361061014d5760003560e01c806370a08231116100c3578063b45a3c0e1161007c578063b45a3c0e14610290578063b88d4fde146102a3578063c87b56dd146102b6578063d3fc9864146102c9578063e985e9c5146102dc578063f2fde38b146103185761014d565b806370a0823114610240578063715018a6146102535780638da5cb5b1461025b578063902d55a51461026c57806395d89b4114610275578063a22cb4651461027d5761014d565b806323b872dd1161011557806323b872dd146101e15780632f745c59146101f457806342842e0e146101e157806342966c68146102075780634f6ccce71461021a5780636352211e1461022d5761014d565b806301ffc9a71461015257806306fdde031461017a578063081812fc1461018f578063095ea7b3146101ba57806318160ddd146101cf575b600080fd5b610165610160366004611e17565b61032b565b60405190151581526020015b60405180910390f35b610182610358565b6040516101719190611eff565b6101a261019d366004611e4f565b6103ea565b6040516001600160a01b039091168152602001610171565b6101cd6101c8366004611d86565b610411565b005b6008545b604051908152602001610171565b6101cd6101ef366004611c98565b61052c565b6101d3610202366004611d86565b61056e565b6101cd610215366004611e4f565b610604565b6101d3610228366004611e4f565b610636565b6101a261023b366004611e4f565b6106d7565b6101d361024e366004611c4c565b610737565b6101cd6107bd565b600b546001600160a01b03166101a2565b6101d3600c5481565b6101826107d1565b6101cd61028b366004611d4c565b6107e0565b61016561029e366004611e4f565b6107ef565b6101cd6102b1366004611cd3565b610829565b6101826102c4366004611e4f565b61086d565b6101cd6102d7366004611daf565b610878565b6101656102ea366004611c66565b6001600160a01b03918216600090815260056020908152604080832093909416825291909152205460ff1690565b6101cd610326366004611c4c565b610a0f565b60006001600160e01b03198216635a2d1e0760e11b1480610350575061035082610a85565b90505b919050565b60606000805461036790612081565b80601f016020809104026020016040519081016040528092919081815260200182805461039390612081565b80156103e05780601f106103b5576101008083540402835291602001916103e0565b820191906000526020600020905b8154815290600101906020018083116103c357829003601f168201915b5050505050905090565b60006103f582610aaa565b506000908152600460205260409020546001600160a01b031690565b600061041c826106d7565b9050806001600160a01b0316836001600160a01b0316141561048f5760405162461bcd60e51b815260206004820152602160248201527f4552433732313a20617070726f76616c20746f2063757272656e74206f776e656044820152603960f91b60648201526084015b60405180910390fd5b336001600160a01b03821614806104ab57506104ab81336102ea565b61051d5760405162461bcd60e51b815260206004820152603d60248201527f4552433732313a20617070726f76652063616c6c6572206973206e6f7420746f60448201527f6b656e206f776e6572206f7220617070726f76656420666f7220616c6c0000006064820152608401610486565b6105278383610b09565b505050565b6000818152600d6020526040902054819060ff161561055d5760405162461bcd60e51b815260040161048690611ff6565b610568848484610b77565b50505050565b600061057983610737565b82106105db5760405162461bcd60e51b815260206004820152602b60248201527f455243373231456e756d657261626c653a206f776e657220696e646578206f7560448201526a74206f6620626f756e647360a81b6064820152608401610486565b506001600160a01b03919091166000908152600660209081526040808320938352929052205490565b61060e3382610b92565b61062a5760405162461bcd60e51b815260040161048690611f12565b61063381610c11565b50565b600061064160085490565b82106106a45760405162461bcd60e51b815260206004820152602c60248201527f455243373231456e756d657261626c653a20676c6f62616c20696e646578206f60448201526b7574206f6620626f756e647360a01b6064820152608401610486565b600882815481106106c557634e487b7160e01b600052603260045260246000fd5b90600052602060002001549050919050565b6000818152600260205260408120546001600160a01b0316806103505760405162461bcd60e51b8152602060048201526018602482015277115490cdcc8c4e881a5b9d985b1a59081d1bdad95b88125160421b6044820152606401610486565b60006001600160a01b0382166107a15760405162461bcd60e51b815260206004820152602960248201527f4552433732313a2061646472657373207a65726f206973206e6f7420612076616044820152683634b21037bbb732b960b91b6064820152608401610486565b506001600160a01b031660009081526003602052604090205490565b6107c5610c1a565b6107cf6000610c74565b565b60606001805461036790612081565b6107eb338383610cc6565b5050565b6000818152600260205260408120546001600160a01b031661081357506000610353565b506000908152600d602052604090205460ff1690565b6000828152600d6020526040902054829060ff161561085a5760405162461bcd60e51b815260040161048690611ff6565b61086685858585610d95565b5050505050565b606061035082610dc7565b610880610c1a565b600c548211156108c45760405162461bcd60e51b815260206004820152600f60248201526e746f6b656e496420746f6f2062696760881b6044820152606401610486565b6108cd83610737565b156109095760405162461bcd60e51b815260206004820152600c60248201526b416c7265616479206861766560a01b6044820152606401610486565b6000828152600d602052604090205460ff1615156001141561095e5760405162461bcd60e51b815260206004820152600e60248201526d105b1c9958591e481b5a5b9d195960921b6044820152606401610486565b60008151116109a85760405162461bcd60e51b81526020600482015260166024820152751d1bdad95b955c9a481cda1bdd5b19081899481cd95d60521b6044820152606401610486565b6000828152600d602052604090819020805460ff19166001179055517f032bc66be43dbccb7487781d168eb7bda224628a3b2c3388bdf69b532a3a1611906109f39084815260200190565b60405180910390a1610a058383610ed1565b6105278282610eeb565b610a17610c1a565b6001600160a01b038116610a7c5760405162461bcd60e51b815260206004820152602660248201527f4f776e61626c653a206e6577206f776e657220697320746865207a65726f206160448201526564647265737360d01b6064820152608401610486565b61063381610c74565b60006001600160e01b0319821663780e9d6360e01b1480610350575061035082610f85565b6000818152600260205260409020546001600160a01b03166106335760405162461bcd60e51b8152602060048201526018602482015277115490cdcc8c4e881a5b9d985b1a59081d1bdad95b88125160421b6044820152606401610486565b600081815260046020526040902080546001600160a01b0319166001600160a01b0384169081179091558190610b3e826106d7565b6001600160a01b03167f8c5be1e5ebec7d5bd14f71427d1e84f3dd0314c0f7b2291e5b200ac8c7c3b92560405160405180910390a45050565b61052783838360405180602001604052806000815250610829565b600080610b9e836106d7565b9050806001600160a01b0316846001600160a01b03161480610be557506001600160a01b0380821660009081526005602090815260408083209388168352929052205460ff165b80610c095750836001600160a01b0316610bfe846103ea565b6001600160a01b0316145b949350505050565b61063381610fd5565b600b546001600160a01b031633146107cf5760405162461bcd60e51b815260206004820181905260248201527f4f776e61626c653a2063616c6c6572206973206e6f7420746865206f776e65726044820152606401610486565b600b80546001600160a01b038381166001600160a01b0319831681179093556040519116919082907f8be0079c531659141344cd1fd0a4f28419497f9722a3daafe3b4186f6b6457e090600090a35050565b816001600160a01b0316836001600160a01b03161415610d285760405162461bcd60e51b815260206004820152601960248201527f4552433732313a20617070726f766520746f2063616c6c6572000000000000006044820152606401610486565b6001600160a01b03838116600081815260056020908152604080832094871680845294825291829020805460ff191686151590811790915591519182527f17307eab39ab6107e8899845ad3d59bd9653f200f220920489ca2b5937696c31910160405180910390a3505050565b610d9f3383610b92565b610dbb5760405162461bcd60e51b815260040161048690611f12565b61056884848484611015565b6060610dd282610aaa565b6000828152600a602052604081208054610deb90612081565b80601f0160208091040260200160405190810160405280929190818152602001828054610e1790612081565b8015610e645780601f10610e3957610100808354040283529160200191610e64565b820191906000526020600020905b815481529060010190602001808311610e4757829003601f168201915b505050505090506000610e8260408051602081019091526000815290565b9050805160001415610e9657509050610353565b815115610ec8578082604051602001610eb0929190611e93565b60405160208183030381529060405292505050610353565b610c0984611048565b6107eb8282604051806020016040528060008152506110bc565b6000828152600260205260409020546001600160a01b0316610f665760405162461bcd60e51b815260206004820152602e60248201527f45524337323155524953746f726167653a2055524920736574206f66206e6f6e60448201526d32bc34b9ba32b73a103a37b5b2b760911b6064820152608401610486565b6000828152600a60209081526040909120825161052792840190611aee565b60006001600160e01b031982166380ac58cd60e01b1480610fb657506001600160e01b03198216635b5e139f60e01b145b8061035057506301ffc9a760e01b6001600160e01b0319831614610350565b610fde816110ef565b6000818152600a602052604090208054610ff790612081565b159050610633576000818152600a6020526040812061063391611b72565b611020848484611193565b61102c84848484611304565b6105685760405162461bcd60e51b815260040161048690611f5f565b606061105382610aaa565b600061106a60408051602081019091526000815290565b9050600081511161108a57604051806020016040528060008152506110b5565b8061109484611411565b6040516020016110a5929190611e93565b6040516020818303038152906040525b9392505050565b6110c683836114bc565b6110d36000848484611304565b6105275760405162461bcd60e51b815260040161048690611f5f565b60006110fa826106d7565b905061110a816000846001611656565b611113826106d7565b600083815260046020908152604080832080546001600160a01b03199081169091556001600160a01b0385168085526003845282852080546000190190558785526002909352818420805490911690555192935084927fddf252ad1be2c89b69c2b068fc378daa952ba7f163c4a11628f55a4df523b3ef908390a46107eb565b826001600160a01b03166111a6826106d7565b6001600160a01b0316146111cc5760405162461bcd60e51b815260040161048690611fb1565b6001600160a01b03821661122e5760405162461bcd60e51b8152602060048201526024808201527f4552433732313a207472616e7366657220746f20746865207a65726f206164646044820152637265737360e01b6064820152608401610486565b61123b8383836001611656565b826001600160a01b031661124e826106d7565b6001600160a01b0316146112745760405162461bcd60e51b815260040161048690611fb1565b600081815260046020908152604080832080546001600160a01b03199081169091556001600160a01b0387811680865260038552838620805460001901905590871680865283862080546001019055868652600290945282852080549092168417909155905184937fddf252ad1be2c89b69c2b068fc378daa952ba7f163c4a11628f55a4df523b3ef91a4610527565b60006001600160a01b0384163b1561140657604051630a85bd0160e11b81526001600160a01b0385169063150b7a0290611348903390899088908890600401611ec2565b602060405180830381600087803b15801561136257600080fd5b505af1925050508015611392575060408051601f3d908101601f1916820190925261138f91810190611e33565b60015b6113ec573d8080156113c0576040519150601f19603f3d011682016040523d82523d6000602084013e6113c5565b606091505b5080516113e45760405162461bcd60e51b815260040161048690611f5f565b805181602001fd5b6001600160e01b031916630a85bd0160e11b149050610c09565b506001949350505050565b6060600061141e8361169b565b600101905060008167ffffffffffffffff81111561144c57634e487b7160e01b600052604160045260246000fd5b6040519080825280601f01601f191660200182016040528015611476576020820181803683370190505b5090508181016020015b600019016f181899199a1a9b1b9c1cb0b131b232b360811b600a86061a8153600a85049450846114af576114b4565b611480565b509392505050565b6001600160a01b0382166115125760405162461bcd60e51b815260206004820181905260248201527f4552433732313a206d696e7420746f20746865207a65726f20616464726573736044820152606401610486565b6000818152600260205260409020546001600160a01b0316156115775760405162461bcd60e51b815260206004820152601c60248201527f4552433732313a20746f6b656e20616c7265616479206d696e746564000000006044820152606401610486565b611585600083836001611656565b6000818152600260205260409020546001600160a01b0316156115ea5760405162461bcd60e51b815260206004820152601c60248201527f4552433732313a20746f6b656e20616c7265616479206d696e746564000000006044820152606401610486565b6001600160a01b038216600081815260036020908152604080832080546001019055848352600290915280822080546001600160a01b0319168417905551839291907fddf252ad1be2c89b69c2b068fc378daa952ba7f163c4a11628f55a4df523b3ef908290a46107eb565b61166284848484611773565b6001600160a01b038416158061167f57506001600160a01b038316155b6105685760405162461bcd60e51b815260040161048690611ff6565b60008072184f03e93ff9f4daa797ed6e38ed64bf6a1f0160401b83106116da5772184f03e93ff9f4daa797ed6e38ed64bf6a1f0160401b830492506040015b6d04ee2d6d415b85acef81000000008310611706576d04ee2d6d415b85acef8100000000830492506020015b662386f26fc10000831061172457662386f26fc10000830492506010015b6305f5e100831061173c576305f5e100830492506008015b612710831061175057612710830492506004015b60648310611762576064830492506002015b600a83106103505760010192915050565b61177f848484846118ac565b60018111156117ee5760405162461bcd60e51b815260206004820152603560248201527f455243373231456e756d657261626c653a20636f6e7365637574697665207472604482015274185b9cd9995c9cc81b9bdd081cdd5c1c1bdc9d1959605a1b6064820152608401610486565b816001600160a01b03851661184a5761184581600880546000838152600960205260408120829055600182018355919091527ff3f7a9fe364faab93b216da50a3214154f22a0a2b415b23a84c8169e8b636ee30155565b61186d565b836001600160a01b0316856001600160a01b03161461186d5761186d8582611934565b6001600160a01b03841661188957611884816119d1565b610866565b846001600160a01b0316846001600160a01b031614610866576108668482611aaa565b6001811115610568576001600160a01b038416156118f2576001600160a01b038416600090815260036020526040812080548392906118ec90849061203e565b90915550505b6001600160a01b03831615610568576001600160a01b03831660009081526003602052604081208054839290611929908490612026565b909155505050505050565b6000600161194184610737565b61194b919061203e565b60008381526007602052604090205490915080821461199e576001600160a01b03841660009081526006602090815260408083208584528252808320548484528184208190558352600790915290208190555b5060009182526007602090815260408084208490556001600160a01b039094168352600681528383209183525290812055565b6008546000906119e39060019061203e565b60008381526009602052604081205460088054939450909284908110611a1957634e487b7160e01b600052603260045260246000fd5b906000526020600020015490508060088381548110611a4857634e487b7160e01b600052603260045260246000fd5b6000918252602080832090910192909255828152600990915260408082208490558582528120556008805480611a8e57634e487b7160e01b600052603160045260246000fd5b6001900381819060005260206000200160009055905550505050565b6000611ab583610737565b6001600160a01b039093166000908152600660209081526040808320868452825280832085905593825260079052919091209190915550565b828054611afa90612081565b90600052602060002090601f016020900481019282611b1c5760008555611b62565b82601f10611b3557805160ff1916838001178555611b62565b82800160010185558215611b62579182015b82811115611b62578251825591602001919060010190611b47565b50611b6e929150611baa565b5090565b508054611b7e90612081565b6000825580601f10611b905750610633565b601f01602090049060005260206000209081019061063391905b5b80821115611b6e5760008155600101611bab565b600067ffffffffffffffff80841115611bda57611bda6120d2565b604051601f8501601f19908116603f01168101908282118183101715611c0257611c026120d2565b81604052809350858152868686011115611c1b57600080fd5b858560208301376000602087830101525050509392505050565b80356001600160a01b038116811461035357600080fd5b600060208284031215611c5d578081fd5b6110b582611c35565b60008060408385031215611c78578081fd5b611c8183611c35565b9150611c8f60208401611c35565b90509250929050565b600080600060608486031215611cac578081fd5b611cb584611c35565b9250611cc360208501611c35565b9150604084013590509250925092565b60008060008060808587031215611ce8578081fd5b611cf185611c35565b9350611cff60208601611c35565b925060408501359150606085013567ffffffffffffffff811115611d21578182fd5b8501601f81018713611d31578182fd5b611d4087823560208401611bbf565b91505092959194509250565b60008060408385031215611d5e578182fd5b611d6783611c35565b915060208301358015158114611d7b578182fd5b809150509250929050565b60008060408385031215611d98578182fd5b611da183611c35565b946020939093013593505050565b600080600060608486031215611dc3578283fd5b611dcc84611c35565b925060208401359150604084013567ffffffffffffffff811115611dee578182fd5b8401601f81018613611dfe578182fd5b611e0d86823560208401611bbf565b9150509250925092565b600060208284031215611e28578081fd5b81356110b5816120e8565b600060208284031215611e44578081fd5b81516110b5816120e8565b600060208284031215611e60578081fd5b5035919050565b60008151808452611e7f816020860160208601612055565b601f01601f19169290920160200192915050565b60008351611ea5818460208801612055565b835190830190611eb9818360208801612055565b01949350505050565b6001600160a01b0385811682528416602082015260408101839052608060608201819052600090611ef590830184611e67565b9695505050505050565b6000602082526110b56020830184611e67565b6020808252602d908201527f4552433732313a2063616c6c6572206973206e6f7420746f6b656e206f776e6560408201526c1c881bdc88185c1c1c9bdd9959609a1b606082015260800190565b60208082526032908201527f4552433732313a207472616e7366657220746f206e6f6e20455243373231526560408201527131b2b4bb32b91034b6b83632b6b2b73a32b960711b606082015260800190565b60208082526025908201527f4552433732313a207472616e736665722066726f6d20696e636f72726563742060408201526437bbb732b960d91b606082015260800190565b602080825260169082015275155b98589b19481d1bc81d1c985b9cd9995c8814d09560521b604082015260600190565b60008219821115612039576120396120bc565b500190565b600082821015612050576120506120bc565b500390565b60005b83811015612070578181015183820152602001612058565b838111156105685750506000910152565b60028104600182168061209557607f821691505b602082108114156120b657634e487b7160e01b600052602260045260246000fd5b50919050565b634e487b7160e01b600052601160045260246000fd5b634e487b7160e01b600052604160045260246000fd5b6001600160e01b03198116811461063357600080fdfea2646970667358221220e25ca4ab56b8f3b963d695802bca6840d0edbfa504b27c9a075794fc1dd8516964736f6c63430008020033",
  "linkReferences": {},
  "deployedLinkReferences": {}
}